{
	"_format": "hh-sol-artifact-1",
	"contractName": "Test",
	"sourceName": "contracts/Test.sol",
	"abi": [
		{
			"inputs": [
				{
					"internalType": "string",
					"name": "_name",
					"type": "string"
				},
				{
					"internalType": "string",
					"name": "_symbol",
					"type": "string"
				},
				{
					"internalType": "string",
					"name": "_initBaseURI",
					"type": "string"
				}
			],
			"stateMutability": "nonpayable",
			"type": "constructor"
		},
		{
			"anonymous": false,
			"inputs": [
				{
					"indexed": true,
					"internalType": "address",
					"name": "owner",
					"type": "address"
				},
				{
					"indexed": true,
					"internalType": "address",
					"name": "approved",
					"type": "address"
				},
				{
					"indexed": true,
					"internalType": "uint256",
					"name": "tokenId",
					"type": "uint256"
				}
			],
			"name": "Approval",
			"type": "event"
		},
		{
			"anonymous": false,
			"inputs": [
				{
					"indexed": true,
					"internalType": "address",
					"name": "owner",
					"type": "address"
				},
				{
					"indexed": true,
					"internalType": "address",
					"name": "operator",
					"type": "address"
				},
				{
					"indexed": false,
					"internalType": "bool",
					"name": "approved",
					"type": "bool"
				}
			],
			"name": "ApprovalForAll",
			"type": "event"
		},
		{
			"anonymous": false,
			"inputs": [
				{
					"indexed": true,
					"internalType": "address",
					"name": "previousOwner",
					"type": "address"
				},
				{
					"indexed": true,
					"internalType": "address",
					"name": "newOwner",
					"type": "address"
				}
			],
			"name": "OwnershipTransferred",
			"type": "event"
		},
		{
			"anonymous": false,
			"inputs": [
				{
					"indexed": true,
					"internalType": "address",
					"name": "from",
					"type": "address"
				},
				{
					"indexed": true,
					"internalType": "address",
					"name": "to",
					"type": "address"
				},
				{
					"indexed": true,
					"internalType": "uint256",
					"name": "tokenId",
					"type": "uint256"
				}
			],
			"name": "Transfer",
			"type": "event"
		},
		{
			"inputs": [
				{
					"internalType": "address",
					"name": "to",
					"type": "address"
				},
				{
					"internalType": "uint256",
					"name": "tokenId",
					"type": "uint256"
				}
			],
			"name": "approve",
			"outputs": [],
			"stateMutability": "nonpayable",
			"type": "function"
		},
		{
			"inputs": [
				{
					"internalType": "address",
					"name": "owner",
					"type": "address"
				}
			],
			"name": "balanceOf",
			"outputs": [
				{
					"internalType": "uint256",
					"name": "",
					"type": "uint256"
				}
			],
			"stateMutability": "view",
			"type": "function"
		},
		{
			"inputs": [],
			"name": "baseExtension",
			"outputs": [
				{
					"internalType": "string",
					"name": "",
					"type": "string"
				}
			],
			"stateMutability": "view",
			"type": "function"
		},
		{
			"inputs": [],
			"name": "baseURI",
			"outputs": [
				{
					"internalType": "string",
					"name": "",
					"type": "string"
				}
			],
			"stateMutability": "view",
			"type": "function"
		},
		{
			"inputs": [
				{
					"internalType": "uint256",
					"name": "tokenId",
					"type": "uint256"
				}
			],
			"name": "getApproved",
			"outputs": [
				{
					"internalType": "address",
					"name": "",
					"type": "address"
				}
			],
			"stateMutability": "view",
			"type": "function"
		},
		{
			"inputs": [],
			"name": "getMyNFTs",
			"outputs": [
				{
					"internalType": "uint256[]",
					"name": "",
					"type": "uint256[]"
				}
			],
			"stateMutability": "view",
			"type": "function"
		},
		{
			"inputs": [
				{
					"internalType": "address",
					"name": "owner",
					"type": "address"
				},
				{
					"internalType": "address",
					"name": "operator",
					"type": "address"
				}
			],
			"name": "isApprovedForAll",
			"outputs": [
				{
					"internalType": "bool",
					"name": "",
					"type": "bool"
				}
			],
			"stateMutability": "view",
			"type": "function"
		},
		{
			"inputs": [],
			"name": "maxMintAmount",
			"outputs": [
				{
					"internalType": "uint256",
					"name": "",
					"type": "uint256"
				}
			],
			"stateMutability": "view",
			"type": "function"
		},
		{
			"inputs": [],
			"name": "maxSupply",
			"outputs": [
				{
					"internalType": "uint256",
					"name": "",
					"type": "uint256"
				}
			],
			"stateMutability": "view",
			"type": "function"
		},
		{
			"inputs": [
				{
					"internalType": "uint256",
					"name": "_mintAmount",
					"type": "uint256"
				}
			],
			"name": "mint",
			"outputs": [],
			"stateMutability": "payable",
			"type": "function"
		},
		{
			"inputs": [],
			"name": "mintedCount",
			"outputs": [
				{
					"internalType": "uint256",
					"name": "",
					"type": "uint256"
				}
			],
			"stateMutability": "view",
			"type": "function"
		},
		{
			"inputs": [],
			"name": "name",
			"outputs": [
				{
					"internalType": "string",
					"name": "",
					"type": "string"
				}
			],
			"stateMutability": "view",
			"type": "function"
		},
		{
			"inputs": [],
			"name": "owner",
			"outputs": [
				{
					"internalType": "address",
					"name": "",
					"type": "address"
				}
			],
			"stateMutability": "view",
			"type": "function"
		},
		{
			"inputs": [
				{
					"internalType": "uint256",
					"name": "tokenId",
					"type": "uint256"
				}
			],
			"name": "ownerOf",
			"outputs": [
				{
					"internalType": "address",
					"name": "",
					"type": "address"
				}
			],
			"stateMutability": "view",
			"type": "function"
		},
		{
			"inputs": [],
			"name": "renounceOwnership",
			"outputs": [],
			"stateMutability": "nonpayable",
			"type": "function"
		},
		{
			"inputs": [
				{
					"internalType": "address",
					"name": "from",
					"type": "address"
				},
				{
					"internalType": "address",
					"name": "to",
					"type": "address"
				},
				{
					"internalType": "uint256",
					"name": "tokenId",
					"type": "uint256"
				}
			],
			"name": "safeTransferFrom",
			"outputs": [],
			"stateMutability": "nonpayable",
			"type": "function"
		},
		{
			"inputs": [
				{
					"internalType": "address",
					"name": "from",
					"type": "address"
				},
				{
					"internalType": "address",
					"name": "to",
					"type": "address"
				},
				{
					"internalType": "uint256",
					"name": "tokenId",
					"type": "uint256"
				},
				{
					"internalType": "bytes",
					"name": "_data",
					"type": "bytes"
				}
			],
			"name": "safeTransferFrom",
			"outputs": [],
			"stateMutability": "nonpayable",
			"type": "function"
		},
		{
			"inputs": [
				{
					"internalType": "address",
					"name": "operator",
					"type": "address"
				},
				{
					"internalType": "bool",
					"name": "approved",
					"type": "bool"
				}
			],
			"name": "setApprovalForAll",
			"outputs": [],
			"stateMutability": "nonpayable",
			"type": "function"
		},
		{
			"inputs": [
				{
					"internalType": "string",
					"name": "_newBaseExtension",
					"type": "string"
				}
			],
			"name": "setBaseExtension",
			"outputs": [],
			"stateMutability": "nonpayable",
			"type": "function"
		},
		{
			"inputs": [
				{
					"internalType": "string",
					"name": "_newBaseURI",
					"type": "string"
				}
			],
			"name": "setBaseURI",
			"outputs": [],
			"stateMutability": "nonpayable",
			"type": "function"
		},
		{
			"inputs": [
				{
					"internalType": "bytes4",
					"name": "interfaceId",
					"type": "bytes4"
				}
			],
			"name": "supportsInterface",
			"outputs": [
				{
					"internalType": "bool",
					"name": "",
					"type": "bool"
				}
			],
			"stateMutability": "view",
			"type": "function"
		},
		{
			"inputs": [],
			"name": "symbol",
			"outputs": [
				{
					"internalType": "string",
					"name": "",
					"type": "string"
				}
			],
			"stateMutability": "view",
			"type": "function"
		},
		{
			"inputs": [
				{
					"internalType": "uint256",
					"name": "index",
					"type": "uint256"
				}
			],
			"name": "tokenByIndex",
			"outputs": [
				{
					"internalType": "uint256",
					"name": "",
					"type": "uint256"
				}
			],
			"stateMutability": "view",
			"type": "function"
		},
		{
			"inputs": [
				{
					"internalType": "address",
					"name": "owner",
					"type": "address"
				},
				{
					"internalType": "uint256",
					"name": "index",
					"type": "uint256"
				}
			],
			"name": "tokenOfOwnerByIndex",
			"outputs": [
				{
					"internalType": "uint256",
					"name": "",
					"type": "uint256"
				}
			],
			"stateMutability": "view",
			"type": "function"
		},
		{
			"inputs": [
				{
					"internalType": "uint256",
					"name": "tokenId",
					"type": "uint256"
				}
			],
			"name": "tokenURI",
			"outputs": [
				{
					"internalType": "string",
					"name": "",
					"type": "string"
				}
			],
			"stateMutability": "view",
			"type": "function"
		},
		{
			"inputs": [],
			"name": "totalSupply",
			"outputs": [
				{
					"internalType": "uint256",
					"name": "",
					"type": "uint256"
				}
			],
			"stateMutability": "view",
			"type": "function"
		},
		{
			"inputs": [
				{
					"internalType": "address",
					"name": "from",
					"type": "address"
				},
				{
					"internalType": "address",
					"name": "to",
					"type": "address"
				},
				{
					"internalType": "uint256",
					"name": "tokenId",
					"type": "uint256"
				}
			],
			"name": "transferFrom",
			"outputs": [],
			"stateMutability": "nonpayable",
			"type": "function"
		},
		{
			"inputs": [
				{
					"internalType": "address",
					"name": "newOwner",
					"type": "address"
				}
			],
			"name": "transferOwnership",
			"outputs": [],
			"stateMutability": "nonpayable",
			"type": "function"
		}
	],
	"bytecode": "0x60806040526040518060400160405280600581526020017f2e6a736f6e000000000000000000000000000000000000000000000000000000815250600c90816200004a9190620010da565b506122b8600d556014600e556000600f553480156200006857600080fd5b5060405162005b7938038062005b7983398181016040528101906200008e919062001325565b82828160009081620000a19190620010da565b508060019081620000b39190620010da565b505050620000d6620000ca6200010260201b60201c565b6200010a60201b60201c565b620000e781620001d060201b60201c565b620000f960016200027460201b60201c565b50505062001ad7565b600033905090565b6000600a60009054906101000a900473ffffffffffffffffffffffffffffffffffffffff16905081600a60006101000a81548173ffffffffffffffffffffffffffffffffffffffff021916908373ffffffffffffffffffffffffffffffffffffffff1602179055508173ffffffffffffffffffffffffffffffffffffffff168173ffffffffffffffffffffffffffffffffffffffff167f8be0079c531659141344cd1fd0a4f28419497f9722a3daafe3b4186f6b6457e060405160405180910390a35050565b620001e06200010260201b60201c565b73ffffffffffffffffffffffffffffffffffffffff16620002066200045660201b60201c565b73ffffffffffffffffffffffffffffffffffffffff16146200025f576040517f08c379a000000000000000000000000000000000000000000000000000000000815260040162000256906200143f565b60405180910390fd5b80600b9081620002709190620010da565b5050565b6000620002866200048060201b60201c565b905060008211620002ce576040517f08c379a0000000000000000000000000000000000000000000000000000000008152600401620002c590620014b1565b60405180910390fd5b620002de6200045660201b60201c565b73ffffffffffffffffffffffffffffffffffffffff163373ffffffffffffffffffffffffffffffffffffffff16146200035a57600e5482111562000359576040517f08c379a0000000000000000000000000000000000000000000000000000000008152600401620003509062001549565b60405180910390fd5b5b600d5482826200036b91906200159a565b1115620003af576040517f08c379a0000000000000000000000000000000000000000000000000000000008152600401620003a69062001625565b60405180910390fd5b6000600190505b8281116200045157620003ce6200045660201b60201c565b73ffffffffffffffffffffffffffffffffffffffff163373ffffffffffffffffffffffffffffffffffffffff16146200041c57600f6000815480929190620004169062001647565b91905055505b6200043b3382846200042f91906200159a565b6200048d60201b60201c565b8080620004489062001647565b915050620003b6565b505050565b6000600a60009054906101000a900473ffffffffffffffffffffffffffffffffffffffff16905090565b6000600880549050905090565b620004af828260405180602001604052806000815250620004b360201b60201c565b5050565b620004c583836200052160201b60201c565b620004da60008484846200070660201b60201c565b6200051c576040517f08c379a000000000000000000000000000000000000000000000000000000000815260040162000513906200170a565b60405180910390fd5b505050565b600073ffffffffffffffffffffffffffffffffffffffff168273ffffffffffffffffffffffffffffffffffffffff160362000593576040517f08c379a00000000000000000000000000000000000000000000000000000000081526004016200058a906200177c565b60405180910390fd5b620005a481620008af60201b60201c565b15620005e7576040517f08c379a0000000000000000000000000000000000000000000000000000000008152600401620005de90620017ee565b60405180910390fd5b620005fb600083836200091b60201b60201c565b6001600360008473ffffffffffffffffffffffffffffffffffffffff1673ffffffffffffffffffffffffffffffffffffffff16815260200190815260200160002060008282546200064d91906200159a565b92505081905550816002600083815260200190815260200160002060006101000a81548173ffffffffffffffffffffffffffffffffffffffff021916908373ffffffffffffffffffffffffffffffffffffffff160217905550808273ffffffffffffffffffffffffffffffffffffffff16600073ffffffffffffffffffffffffffffffffffffffff167fddf252ad1be2c89b69c2b068fc378daa952ba7f163c4a11628f55a4df523b3ef60405160405180910390a45050565b6000620007348473ffffffffffffffffffffffffffffffffffffffff1662000a6060201b620016801760201c565b15620008a2578373ffffffffffffffffffffffffffffffffffffffff1663150b7a02620007666200010260201b60201c565b8786866040518563ffffffff1660e01b81526004016200078a9493929190620018c3565b6020604051808303816000875af1925050508015620007c957506040513d601f19601f82011682018060405250810190620007c6919062001974565b60015b62000851573d8060008114620007fc576040519150601f19603f3d011682016040523d82523d6000602084013e62000801565b606091505b50600081510362000849576040517f08c379a000000000000000000000000000000000000000000000000000000000815260040162000840906200170a565b60405180910390fd5b805181602001fd5b63150b7a0260e01b7bffffffffffffffffffffffffffffffffffffffffffffffffffffffff1916817bffffffffffffffffffffffffffffffffffffffffffffffffffffffff191614915050620008a7565b600190505b949350505050565b60008073ffffffffffffffffffffffffffffffffffffffff166002600084815260200190815260200160002060009054906101000a900473ffffffffffffffffffffffffffffffffffffffff1673ffffffffffffffffffffffffffffffffffffffff1614159050919050565b6200093383838362000a7360201b620016931760201c565b600073ffffffffffffffffffffffffffffffffffffffff168373ffffffffffffffffffffffffffffffffffffffff16036200097f57620009798162000a7860201b60201c565b620009c7565b8173ffffffffffffffffffffffffffffffffffffffff168373ffffffffffffffffffffffffffffffffffffffff1614620009c657620009c5838262000ac160201b60201c565b5b5b600073ffffffffffffffffffffffffffffffffffffffff168273ffffffffffffffffffffffffffffffffffffffff160362000a135762000a0d8162000c3e60201b60201c565b62000a5b565b8273ffffffffffffffffffffffffffffffffffffffff168273ffffffffffffffffffffffffffffffffffffffff161462000a5a5762000a59828262000d1a60201b60201c565b5b5b505050565b600080823b905060008111915050919050565b505050565b6008805490506009600083815260200190815260200160002081905550600881908060018154018082558091505060019003906000526020600020016000909190919091505550565b6000600162000adb8462000da660201b62000d981760201c565b62000ae79190620019a6565b905060006007600084815260200190815260200160002054905081811462000bcd576000600660008673ffffffffffffffffffffffffffffffffffffffff1673ffffffffffffffffffffffffffffffffffffffff168152602001908152602001600020600084815260200190815260200160002054905080600660008773ffffffffffffffffffffffffffffffffffffffff1673ffffffffffffffffffffffffffffffffffffffff168152602001908152602001600020600084815260200190815260200160002081905550816007600083815260200190815260200160002081905550505b6007600084815260200190815260200160002060009055600660008573ffffffffffffffffffffffffffffffffffffffff1673ffffffffffffffffffffffffffffffffffffffff16815260200190815260200160002060008381526020019081526020016000206000905550505050565b6000600160088054905062000c549190620019a6565b905060006009600084815260200190815260200160002054905060006008838154811062000c875762000c86620019e1565b5b90600052602060002001549050806008838154811062000cac5762000cab620019e1565b5b90600052602060002001819055508160096000838152602001908152602001600020819055506009600085815260200190815260200160002060009055600880548062000cfe5762000cfd62001a10565b5b6001900381819060005260206000200160009055905550505050565b600062000d328362000da660201b62000d981760201c565b905081600660008573ffffffffffffffffffffffffffffffffffffffff1673ffffffffffffffffffffffffffffffffffffffff168152602001908152602001600020600083815260200190815260200160002081905550806007600084815260200190815260200160002081905550505050565b60008073ffffffffffffffffffffffffffffffffffffffff168273ffffffffffffffffffffffffffffffffffffffff160362000e19576040517f08c379a000000000000000000000000000000000000000000000000000000000815260040162000e109062001ab5565b60405180910390fd5b600360008373ffffffffffffffffffffffffffffffffffffffff1673ffffffffffffffffffffffffffffffffffffffff168152602001908152602001600020549050919050565b600081519050919050565b7f4e487b7100000000000000000000000000000000000000000000000000000000600052604160045260246000fd5b7f4e487b7100000000000000000000000000000000000000000000000000000000600052602260045260246000fd5b6000600282049050600182168062000ee257607f821691505b60208210810362000ef85762000ef762000e9a565b5b50919050565b60008190508160005260206000209050919050565b60006020601f8301049050919050565b600082821b905092915050565b60006008830262000f627fffffffffffffffffffffffffffffffffffffffffffffffffffffffffffffffff8262000f23565b62000f6e868362000f23565b95508019841693508086168417925050509392505050565b6000819050919050565b6000819050919050565b600062000fbb62000fb562000faf8462000f86565b62000f90565b62000f86565b9050919050565b6000819050919050565b62000fd78362000f9a565b62000fef62000fe68262000fc2565b84845462000f30565b825550505050565b600090565b6200100662000ff7565b6200101381848462000fcc565b505050565b5b818110156200103b576200102f60008262000ffc565b60018101905062001019565b5050565b601f8211156200108a57620010548162000efe565b6200105f8462000f13565b810160208510156200106f578190505b620010876200107e8562000f13565b83018262001018565b50505b505050565b600082821c905092915050565b6000620010af600019846008026200108f565b1980831691505092915050565b6000620010ca83836200109c565b9150826002028217905092915050565b620010e58262000e60565b67ffffffffffffffff81111562001101576200110062000e6b565b5b6200110d825462000ec9565b6200111a8282856200103f565b600060209050601f8311600181146200115257600084156200113d578287015190505b620011498582620010bc565b865550620011b9565b601f198416620011628662000efe565b60005b828110156200118c5784890151825560018201915060208501945060208101905062001165565b86831015620011ac5784890151620011a8601f8916826200109c565b8355505b6001600288020188555050505b505050505050565b6000604051905090565b600080fd5b600080fd5b600080fd5b600080fd5b6000601f19601f8301169050919050565b620011fb82620011df565b810181811067ffffffffffffffff821117156200121d576200121c62000e6b565b5b80604052505050565b600062001232620011c1565b9050620012408282620011f0565b919050565b600067ffffffffffffffff82111562001263576200126262000e6b565b5b6200126e82620011df565b9050602081019050919050565b60005b838110156200129b5780820151818401526020810190506200127e565b60008484015250505050565b6000620012be620012b88462001245565b62001226565b905082815260208101848484011115620012dd57620012dc620011da565b5b620012ea8482856200127b565b509392505050565b600082601f8301126200130a5762001309620011d5565b5b81516200131c848260208601620012a7565b91505092915050565b600080600060608486031215620013415762001340620011cb565b5b600084015167ffffffffffffffff811115620013625762001361620011d0565b5b6200137086828701620012f2565b935050602084015167ffffffffffffffff811115620013945762001393620011d0565b5b620013a286828701620012f2565b925050604084015167ffffffffffffffff811115620013c657620013c5620011d0565b5b620013d486828701620012f2565b9150509250925092565b600082825260208201905092915050565b7f4f776e61626c653a2063616c6c6572206973206e6f7420746865206f776e6572600082015250565b600062001427602083620013de565b91506200143482620013ef565b602082019050919050565b600060208201905081810360008301526200145a8162001418565b9050919050565b7f6e65656420746f206d696e74206174206c656173742031204e46540000000000600082015250565b600062001499601b83620013de565b9150620014a68262001461565b602082019050919050565b60006020820190508181036000830152620014cc816200148a565b9050919050565b7f6d6178206d696e7420616d6f756e74207065722073657373696f6e206578636560008201527f6564656400000000000000000000000000000000000000000000000000000000602082015250565b600062001531602483620013de565b91506200153e82620014d3565b604082019050919050565b60006020820190508181036000830152620015648162001522565b9050919050565b7f4e487b7100000000000000000000000000000000000000000000000000000000600052601160045260246000fd5b6000620015a78262000f86565b9150620015b48362000f86565b9250828201905080821115620015cf57620015ce6200156b565b5b92915050565b7f6d6178204e4654206c696d697420657863656564656400000000000000000000600082015250565b60006200160d601683620013de565b91506200161a82620015d5565b602082019050919050565b600060208201905081810360008301526200164081620015fe565b9050919050565b6000620016548262000f86565b91507fffffffffffffffffffffffffffffffffffffffffffffffffffffffffffffffff82036200168957620016886200156b565b5b600182019050919050565b7f4552433732313a207472616e7366657220746f206e6f6e20455243373231526560008201527f63656976657220696d706c656d656e7465720000000000000000000000000000602082015250565b6000620016f2603283620013de565b9150620016ff8262001694565b604082019050919050565b600060208201905081810360008301526200172581620016e3565b9050919050565b7f4552433732313a206d696e7420746f20746865207a65726f2061646472657373600082015250565b600062001764602083620013de565b915062001771826200172c565b602082019050919050565b60006020820190508181036000830152620017978162001755565b9050919050565b7f4552433732313a20746f6b656e20616c7265616479206d696e74656400000000600082015250565b6000620017d6601c83620013de565b9150620017e3826200179e565b602082019050919050565b600060208201905081810360008301526200180981620017c7565b9050919050565b600073ffffffffffffffffffffffffffffffffffffffff82169050919050565b60006200183d8262001810565b9050919050565b6200184f8162001830565b82525050565b620018608162000f86565b82525050565b600081519050919050565b600082825260208201905092915050565b60006200188f8262001866565b6200189b818562001871565b9350620018ad8185602086016200127b565b620018b881620011df565b840191505092915050565b6000608082019050620018da600083018762001844565b620018e9602083018662001844565b620018f8604083018562001855565b81810360608301526200190c818462001882565b905095945050505050565b60007fffffffff0000000000000000000000000000000000000000000000000000000082169050919050565b6200194e8162001917565b81146200195a57600080fd5b50565b6000815190506200196e8162001943565b92915050565b6000602082840312156200198d576200198c620011cb565b5b60006200199d848285016200195d565b91505092915050565b6000620019b38262000f86565b9150620019c08362000f86565b9250828203905081811115620019db57620019da6200156b565b5b92915050565b7f4e487b7100000000000000000000000000000000000000000000000000000000600052603260045260246000fd5b7f4e487b7100000000000000000000000000000000000000000000000000000000600052603160045260246000fd5b7f4552433732313a2062616c616e636520717565727920666f7220746865207a6560008201527f726f206164647265737300000000000000000000000000000000000000000000602082015250565b600062001a9d602a83620013de565b915062001aaa8262001a3f565b604082019050919050565b6000602082019050818103600083015262001ad08162001a8e565b9050919050565b6140928062001ae76000396000f3fe6080604052600436106101b75760003560e01c806370a08231116100ec578063c66828621161008a578063d5abeb0111610064578063d5abeb0114610613578063da3ef23f1461063e578063e985e9c514610667578063f2fde38b146106a4576101b7565b8063c668286214610580578063c87b56dd146105ab578063cf721b15146105e8576101b7565b806395d89b41116100c657806395d89b41146104e7578063a0712d6814610512578063a22cb4651461052e578063b88d4fde14610557576101b7565b806370a0823114610468578063715018a6146104a55780638da5cb5b146104bc576101b7565b80632f745c591161015957806355f804b31161013357806355f804b3146103ac578063629cb2e4146103d55780636352211e146104005780636c0360eb1461043d576101b7565b80632f745c591461030957806342842e0e146103465780634f6ccce71461036f576101b7565b8063095ea7b311610195578063095ea7b31461026157806318160ddd1461028a578063239c70ae146102b557806323b872dd146102e0576101b7565b806301ffc9a7146101bc57806306fdde03146101f9578063081812fc14610224575b600080fd5b3480156101c857600080fd5b506101e360048036038101906101de91906127af565b6106cd565b6040516101f091906127f7565b60405180910390f35b34801561020557600080fd5b5061020e610747565b60405161021b91906128a2565b60405180910390f35b34801561023057600080fd5b5061024b600480360381019061024691906128fa565b6107d9565b6040516102589190612968565b60405180910390f35b34801561026d57600080fd5b50610288600480360381019061028391906129af565b61085e565b005b34801561029657600080fd5b5061029f610975565b6040516102ac91906129fe565b60405180910390f35b3480156102c157600080fd5b506102ca610982565b6040516102d791906129fe565b60405180910390f35b3480156102ec57600080fd5b5061030760048036038101906103029190612a19565b610988565b005b34801561031557600080fd5b50610330600480360381019061032b91906129af565b6109e8565b60405161033d91906129fe565b60405180910390f35b34801561035257600080fd5b5061036d60048036038101906103689190612a19565b610a8d565b005b34801561037b57600080fd5b50610396600480360381019061039191906128fa565b610aad565b6040516103a391906129fe565b60405180910390f35b3480156103b857600080fd5b506103d360048036038101906103ce9190612ba1565b610b1e565b005b3480156103e157600080fd5b506103ea610bad565b6040516103f79190612ca8565b60405180910390f35b34801561040c57600080fd5b50610427600480360381019061042291906128fa565b610c59565b6040516104349190612968565b60405180910390f35b34801561044957600080fd5b50610452610d0a565b60405161045f91906128a2565b60405180910390f35b34801561047457600080fd5b5061048f600480360381019061048a9190612cca565b610d98565b60405161049c91906129fe565b60405180910390f35b3480156104b157600080fd5b506104ba610e4f565b005b3480156104c857600080fd5b506104d1610ed7565b6040516104de9190612968565b60405180910390f35b3480156104f357600080fd5b506104fc610f01565b60405161050991906128a2565b60405180910390f35b61052c600480360381019061052791906128fa565b610f93565b005b34801561053a57600080fd5b5061055560048036038101906105509190612d23565b611140565b005b34801561056357600080fd5b5061057e60048036038101906105799190612e04565b6112c0565b005b34801561058c57600080fd5b50610595611322565b6040516105a291906128a2565b60405180910390f35b3480156105b757600080fd5b506105d260048036038101906105cd91906128fa565b6113b0565b6040516105df91906128a2565b60405180910390f35b3480156105f457600080fd5b506105fd61145a565b60405161060a91906129fe565b60405180910390f35b34801561061f57600080fd5b50610628611460565b60405161063591906129fe565b60405180910390f35b34801561064a57600080fd5b5061066560048036038101906106609190612ba1565b611466565b005b34801561067357600080fd5b5061068e60048036038101906106899190612e87565b6114f5565b60405161069b91906127f7565b60405180910390f35b3480156106b057600080fd5b506106cb60048036038101906106c69190612cca565b611589565b005b60007f780e9d63000000000000000000000000000000000000000000000000000000007bffffffffffffffffffffffffffffffffffffffffffffffffffffffff1916827bffffffffffffffffffffffffffffffffffffffffffffffffffffffff19161480610740575061073f82611698565b5b9050919050565b60606000805461075690612ef6565b80601f016020809104026020016040519081016040528092919081815260200182805461078290612ef6565b80156107cf5780601f106107a4576101008083540402835291602001916107cf565b820191906000526020600020905b8154815290600101906020018083116107b257829003601f168201915b5050505050905090565b60006107e48261177a565b610823576040517f08c379a000000000000000000000000000000000000000000000000000000000815260040161081a90612f99565b60405180910390fd5b6004600083815260200190815260200160002060009054906101000a900473ffffffffffffffffffffffffffffffffffffffff169050919050565b600061086982610c59565b90508073ffffffffffffffffffffffffffffffffffffffff168373ffffffffffffffffffffffffffffffffffffffff16036108d9576040517f08c379a00000000000000000000000000000000000000000000000000000000081526004016108d09061302b565b60405180910390fd5b8073ffffffffffffffffffffffffffffffffffffffff166108f86117e6565b73ffffffffffffffffffffffffffffffffffffffff1614806109275750610926816109216117e6565b6114f5565b5b610966576040517f08c379a000000000000000000000000000000000000000000000000000000000815260040161095d906130bd565b60405180910390fd5b61097083836117ee565b505050565b6000600880549050905090565b600e5481565b6109996109936117e6565b826118a7565b6109d8576040517f08c379a00000000000000000000000000000000000000000000000000000000081526004016109cf9061314f565b60405180910390fd5b6109e3838383611985565b505050565b60006109f383610d98565b8210610a34576040517f08c379a0000000000000000000000000000000000000000000000000000000008152600401610a2b906131e1565b60405180910390fd5b600660008473ffffffffffffffffffffffffffffffffffffffff1673ffffffffffffffffffffffffffffffffffffffff168152602001908152602001600020600083815260200190815260200160002054905092915050565b610aa8838383604051806020016040528060008152506112c0565b505050565b6000610ab7610975565b8210610af8576040517f08c379a0000000000000000000000000000000000000000000000000000000008152600401610aef90613273565b60405180910390fd5b60088281548110610b0c57610b0b613293565b5b90600052602060002001549050919050565b610b266117e6565b73ffffffffffffffffffffffffffffffffffffffff16610b44610ed7565b73ffffffffffffffffffffffffffffffffffffffff1614610b9a576040517f08c379a0000000000000000000000000000000000000000000000000000000008152600401610b919061330e565b60405180910390fd5b80600b9081610ba991906134da565b5050565b60606000610bba33610d98565b905060008167ffffffffffffffff811115610bd857610bd7612a76565b5b604051908082528060200260200182016040528015610c065781602001602082028036833780820191505090505b50905060005b82811015610c5057610c1e33826109e8565b828281518110610c3157610c30613293565b5b6020026020010181815250508080610c48906135db565b915050610c0c565b50809250505090565b6000806002600084815260200190815260200160002060009054906101000a900473ffffffffffffffffffffffffffffffffffffffff169050600073ffffffffffffffffffffffffffffffffffffffff168173ffffffffffffffffffffffffffffffffffffffff1603610d01576040517f08c379a0000000000000000000000000000000000000000000000000000000008152600401610cf890613695565b60405180910390fd5b80915050919050565b600b8054610d1790612ef6565b80601f0160208091040260200160405190810160405280929190818152602001828054610d4390612ef6565b8015610d905780601f10610d6557610100808354040283529160200191610d90565b820191906000526020600020905b815481529060010190602001808311610d7357829003601f168201915b505050505081565b60008073ffffffffffffffffffffffffffffffffffffffff168273ffffffffffffffffffffffffffffffffffffffff1603610e08576040517f08c379a0000000000000000000000000000000000000000000000000000000008152600401610dff90613727565b60405180910390fd5b600360008373ffffffffffffffffffffffffffffffffffffffff1673ffffffffffffffffffffffffffffffffffffffff168152602001908152602001600020549050919050565b610e576117e6565b73ffffffffffffffffffffffffffffffffffffffff16610e75610ed7565b73ffffffffffffffffffffffffffffffffffffffff1614610ecb576040517f08c379a0000000000000000000000000000000000000000000000000000000008152600401610ec29061330e565b60405180910390fd5b610ed56000611be0565b565b6000600a60009054906101000a900473ffffffffffffffffffffffffffffffffffffffff16905090565b606060018054610f1090612ef6565b80601f0160208091040260200160405190810160405280929190818152602001828054610f3c90612ef6565b8015610f895780601f10610f5e57610100808354040283529160200191610f89565b820191906000526020600020905b815481529060010190602001808311610f6c57829003601f168201915b5050505050905090565b6000610f9d610975565b905060008211610fe2576040517f08c379a0000000000000000000000000000000000000000000000000000000008152600401610fd990613793565b60405180910390fd5b610fea610ed7565b73ffffffffffffffffffffffffffffffffffffffff163373ffffffffffffffffffffffffffffffffffffffff161461106257600e54821115611061576040517f08c379a000000000000000000000000000000000000000000000000000000000815260040161105890613825565b60405180910390fd5b5b600d5482826110719190613845565b11156110b2576040517f08c379a00000000000000000000000000000000000000000000000000000000081526004016110a9906138c5565b60405180910390fd5b6000600190505b82811161113b576110c8610ed7565b73ffffffffffffffffffffffffffffffffffffffff163373ffffffffffffffffffffffffffffffffffffffff161461111357600f600081548092919061110d906135db565b91905055505b6111283382846111239190613845565b611ca6565b8080611133906135db565b9150506110b9565b505050565b6111486117e6565b73ffffffffffffffffffffffffffffffffffffffff168273ffffffffffffffffffffffffffffffffffffffff16036111b5576040517f08c379a00000000000000000000000000000000000000000000000000000000081526004016111ac90613931565b60405180910390fd5b80600560006111c26117e6565b73ffffffffffffffffffffffffffffffffffffffff1673ffffffffffffffffffffffffffffffffffffffff16815260200190815260200160002060008473ffffffffffffffffffffffffffffffffffffffff1673ffffffffffffffffffffffffffffffffffffffff16815260200190815260200160002060006101000a81548160ff0219169083151502179055508173ffffffffffffffffffffffffffffffffffffffff1661126f6117e6565b73ffffffffffffffffffffffffffffffffffffffff167f17307eab39ab6107e8899845ad3d59bd9653f200f220920489ca2b5937696c31836040516112b491906127f7565b60405180910390a35050565b6112d16112cb6117e6565b836118a7565b611310576040517f08c379a00000000000000000000000000000000000000000000000000000000081526004016113079061314f565b60405180910390fd5b61131c84848484611cc4565b50505050565b600c805461132f90612ef6565b80601f016020809104026020016040519081016040528092919081815260200182805461135b90612ef6565b80156113a85780601f1061137d576101008083540402835291602001916113a8565b820191906000526020600020905b81548152906001019060200180831161138b57829003601f168201915b505050505081565b60606113bb8261177a565b6113fa576040517f08c379a00000000000000000000000000000000000000000000000000000000081526004016113f1906139c3565b60405180910390fd5b6000611404611d20565b905060008151116114245760405180602001604052806000815250611452565b8061142e84611db2565b600c60405160200161144293929190613aa2565b6040516020818303038152906040525b915050919050565b600f5481565b600d5481565b61146e6117e6565b73ffffffffffffffffffffffffffffffffffffffff1661148c610ed7565b73ffffffffffffffffffffffffffffffffffffffff16146114e2576040517f08c379a00000000000000000000000000000000000000000000000000000000081526004016114d99061330e565b60405180910390fd5b80600c90816114f191906134da565b5050565b6000600560008473ffffffffffffffffffffffffffffffffffffffff1673ffffffffffffffffffffffffffffffffffffffff16815260200190815260200160002060008373ffffffffffffffffffffffffffffffffffffffff1673ffffffffffffffffffffffffffffffffffffffff16815260200190815260200160002060009054906101000a900460ff16905092915050565b6115916117e6565b73ffffffffffffffffffffffffffffffffffffffff166115af610ed7565b73ffffffffffffffffffffffffffffffffffffffff1614611605576040517f08c379a00000000000000000000000000000000000000000000000000000000081526004016115fc9061330e565b60405180910390fd5b600073ffffffffffffffffffffffffffffffffffffffff168173ffffffffffffffffffffffffffffffffffffffff1603611674576040517f08c379a000000000000000000000000000000000000000000000000000000000815260040161166b90613b45565b60405180910390fd5b61167d81611be0565b50565b600080823b905060008111915050919050565b505050565b60007f80ac58cd000000000000000000000000000000000000000000000000000000007bffffffffffffffffffffffffffffffffffffffffffffffffffffffff1916827bffffffffffffffffffffffffffffffffffffffffffffffffffffffff1916148061176357507f5b5e139f000000000000000000000000000000000000000000000000000000007bffffffffffffffffffffffffffffffffffffffffffffffffffffffff1916827bffffffffffffffffffffffffffffffffffffffffffffffffffffffff1916145b80611773575061177282611f12565b5b9050919050565b60008073ffffffffffffffffffffffffffffffffffffffff166002600084815260200190815260200160002060009054906101000a900473ffffffffffffffffffffffffffffffffffffffff1673ffffffffffffffffffffffffffffffffffffffff1614159050919050565b600033905090565b816004600083815260200190815260200160002060006101000a81548173ffffffffffffffffffffffffffffffffffffffff021916908373ffffffffffffffffffffffffffffffffffffffff160217905550808273ffffffffffffffffffffffffffffffffffffffff1661186183610c59565b73ffffffffffffffffffffffffffffffffffffffff167f8c5be1e5ebec7d5bd14f71427d1e84f3dd0314c0f7b2291e5b200ac8c7c3b92560405160405180910390a45050565b60006118b28261177a565b6118f1576040517f08c379a00000000000000000000000000000000000000000000000000000000081526004016118e890613bd7565b60405180910390fd5b60006118fc83610c59565b90508073ffffffffffffffffffffffffffffffffffffffff168473ffffffffffffffffffffffffffffffffffffffff16148061196b57508373ffffffffffffffffffffffffffffffffffffffff16611953846107d9565b73ffffffffffffffffffffffffffffffffffffffff16145b8061197c575061197b81856114f5565b5b91505092915050565b8273ffffffffffffffffffffffffffffffffffffffff166119a582610c59565b73ffffffffffffffffffffffffffffffffffffffff16146119fb576040517f08c379a00000000000000000000000000000000000000000000000000000000081526004016119f290613c69565b60405180910390fd5b600073ffffffffffffffffffffffffffffffffffffffff168273ffffffffffffffffffffffffffffffffffffffff1603611a6a576040517f08c379a0000000000000000000000000000000000000000000000000000000008152600401611a6190613cfb565b60405180910390fd5b611a75838383611f7c565b611a806000826117ee565b6001600360008573ffffffffffffffffffffffffffffffffffffffff1673ffffffffffffffffffffffffffffffffffffffff1681526020019081526020016000206000828254611ad09190613d1b565b925050819055506001600360008473ffffffffffffffffffffffffffffffffffffffff1673ffffffffffffffffffffffffffffffffffffffff1681526020019081526020016000206000828254611b279190613845565b92505081905550816002600083815260200190815260200160002060006101000a81548173ffffffffffffffffffffffffffffffffffffffff021916908373ffffffffffffffffffffffffffffffffffffffff160217905550808273ffffffffffffffffffffffffffffffffffffffff168473ffffffffffffffffffffffffffffffffffffffff167fddf252ad1be2c89b69c2b068fc378daa952ba7f163c4a11628f55a4df523b3ef60405160405180910390a4505050565b6000600a60009054906101000a900473ffffffffffffffffffffffffffffffffffffffff16905081600a60006101000a81548173ffffffffffffffffffffffffffffffffffffffff021916908373ffffffffffffffffffffffffffffffffffffffff1602179055508173ffffffffffffffffffffffffffffffffffffffff168173ffffffffffffffffffffffffffffffffffffffff167f8be0079c531659141344cd1fd0a4f28419497f9722a3daafe3b4186f6b6457e060405160405180910390a35050565b611cc082826040518060200160405280600081525061208e565b5050565b611ccf848484611985565b611cdb848484846120e9565b611d1a576040517f08c379a0000000000000000000000000000000000000000000000000000000008152600401611d1190613dc1565b60405180910390fd5b50505050565b6060600b8054611d2f90612ef6565b80601f0160208091040260200160405190810160405280929190818152602001828054611d5b90612ef6565b8015611da85780601f10611d7d57610100808354040283529160200191611da8565b820191906000526020600020905b815481529060010190602001808311611d8b57829003601f168201915b5050505050905090565b606060008203611df9576040518060400160405280600181526020017f30000000000000000000000000000000000000000000000000000000000000008152509050611f0d565b600082905060005b60008214611e2b578080611e14906135db565b915050600a82611e249190613e10565b9150611e01565b60008167ffffffffffffffff811115611e4757611e46612a76565b5b6040519080825280601f01601f191660200182016040528015611e795781602001600182028036833780820191505090505b5090505b60008514611f0657600182611e929190613d1b565b9150600a85611ea19190613e41565b6030611ead9190613845565b60f81b818381518110611ec357611ec2613293565b5b60200101907effffffffffffffffffffffffffffffffffffffffffffffffffffffffffffff1916908160001a905350600a85611eff9190613e10565b9450611e7d565b8093505050505b919050565b60007f01ffc9a7000000000000000000000000000000000000000000000000000000007bffffffffffffffffffffffffffffffffffffffffffffffffffffffff1916827bffffffffffffffffffffffffffffffffffffffffffffffffffffffff1916149050919050565b611f87838383611693565b600073ffffffffffffffffffffffffffffffffffffffff168373ffffffffffffffffffffffffffffffffffffffff1603611fc957611fc481612270565b612008565b8173ffffffffffffffffffffffffffffffffffffffff168373ffffffffffffffffffffffffffffffffffffffff16146120075761200683826122b9565b5b5b600073ffffffffffffffffffffffffffffffffffffffff168273ffffffffffffffffffffffffffffffffffffffff160361204a5761204581612426565b612089565b8273ffffffffffffffffffffffffffffffffffffffff168273ffffffffffffffffffffffffffffffffffffffff16146120885761208782826124f7565b5b5b505050565b6120988383612576565b6120a560008484846120e9565b6120e4576040517f08c379a00000000000000000000000000000000000000000000000000000000081526004016120db90613dc1565b60405180910390fd5b505050565b600061210a8473ffffffffffffffffffffffffffffffffffffffff16611680565b15612263578373ffffffffffffffffffffffffffffffffffffffff1663150b7a026121336117e6565b8786866040518563ffffffff1660e01b81526004016121559493929190613ec7565b6020604051808303816000875af192505050801561219157506040513d601f19601f8201168201806040525081019061218e9190613f28565b60015b612213573d80600081146121c1576040519150601f19603f3d011682016040523d82523d6000602084013e6121c6565b606091505b50600081510361220b576040517f08c379a000000000000000000000000000000000000000000000000000000000815260040161220290613dc1565b60405180910390fd5b805181602001fd5b63150b7a0260e01b7bffffffffffffffffffffffffffffffffffffffffffffffffffffffff1916817bffffffffffffffffffffffffffffffffffffffffffffffffffffffff191614915050612268565b600190505b949350505050565b6008805490506009600083815260200190815260200160002081905550600881908060018154018082558091505060019003906000526020600020016000909190919091505550565b600060016122c684610d98565b6122d09190613d1b565b90506000600760008481526020019081526020016000205490508181146123b5576000600660008673ffffffffffffffffffffffffffffffffffffffff1673ffffffffffffffffffffffffffffffffffffffff168152602001908152602001600020600084815260200190815260200160002054905080600660008773ffffffffffffffffffffffffffffffffffffffff1673ffffffffffffffffffffffffffffffffffffffff168152602001908152602001600020600084815260200190815260200160002081905550816007600083815260200190815260200160002081905550505b6007600084815260200190815260200160002060009055600660008573ffffffffffffffffffffffffffffffffffffffff1673ffffffffffffffffffffffffffffffffffffffff16815260200190815260200160002060008381526020019081526020016000206000905550505050565b6000600160088054905061243a9190613d1b565b905060006009600084815260200190815260200160002054905060006008838154811061246a57612469613293565b5b90600052602060002001549050806008838154811061248c5761248b613293565b5b9060005260206000200181905550816009600083815260200190815260200160002081905550600960008581526020019081526020016000206000905560088054806124db576124da613f55565b5b6001900381819060005260206000200160009055905550505050565b600061250283610d98565b905081600660008573ffffffffffffffffffffffffffffffffffffffff1673ffffffffffffffffffffffffffffffffffffffff168152602001908152602001600020600083815260200190815260200160002081905550806007600084815260200190815260200160002081905550505050565b600073ffffffffffffffffffffffffffffffffffffffff168273ffffffffffffffffffffffffffffffffffffffff16036125e5576040517f08c379a00000000000000000000000000000000000000000000000000000000081526004016125dc90613fd0565b60405180910390fd5b6125ee8161177a565b1561262e576040517f08c379a00000000000000000000000000000000000000000000000000000000081526004016126259061403c565b60405180910390fd5b61263a60008383611f7c565b6001600360008473ffffffffffffffffffffffffffffffffffffffff1673ffffffffffffffffffffffffffffffffffffffff168152602001908152602001600020600082825461268a9190613845565b92505081905550816002600083815260200190815260200160002060006101000a81548173ffffffffffffffffffffffffffffffffffffffff021916908373ffffffffffffffffffffffffffffffffffffffff160217905550808273ffffffffffffffffffffffffffffffffffffffff16600073ffffffffffffffffffffffffffffffffffffffff167fddf252ad1be2c89b69c2b068fc378daa952ba7f163c4a11628f55a4df523b3ef60405160405180910390a45050565b6000604051905090565b600080fd5b600080fd5b60007fffffffff0000000000000000000000000000000000000000000000000000000082169050919050565b61278c81612757565b811461279757600080fd5b50565b6000813590506127a981612783565b92915050565b6000602082840312156127c5576127c461274d565b5b60006127d38482850161279a565b91505092915050565b60008115159050919050565b6127f1816127dc565b82525050565b600060208201905061280c60008301846127e8565b92915050565b600081519050919050565b600082825260208201905092915050565b60005b8381101561284c578082015181840152602081019050612831565b60008484015250505050565b6000601f19601f8301169050919050565b600061287482612812565b61287e818561281d565b935061288e81856020860161282e565b61289781612858565b840191505092915050565b600060208201905081810360008301526128bc8184612869565b905092915050565b6000819050919050565b6128d7816128c4565b81146128e257600080fd5b50565b6000813590506128f4816128ce565b92915050565b6000602082840312156129105761290f61274d565b5b600061291e848285016128e5565b91505092915050565b600073ffffffffffffffffffffffffffffffffffffffff82169050919050565b600061295282612927565b9050919050565b61296281612947565b82525050565b600060208201905061297d6000830184612959565b92915050565b61298c81612947565b811461299757600080fd5b50565b6000813590506129a981612983565b92915050565b600080604083850312156129c6576129c561274d565b5b60006129d48582860161299a565b92505060206129e5858286016128e5565b9150509250929050565b6129f8816128c4565b82525050565b6000602082019050612a1360008301846129ef565b92915050565b600080600060608486031215612a3257612a3161274d565b5b6000612a408682870161299a565b9350506020612a518682870161299a565b9250506040612a62868287016128e5565b9150509250925092565b600080fd5b600080fd5b7f4e487b7100000000000000000000000000000000000000000000000000000000600052604160045260246000fd5b612aae82612858565b810181811067ffffffffffffffff82111715612acd57612acc612a76565b5b80604052505050565b6000612ae0612743565b9050612aec8282612aa5565b919050565b600067ffffffffffffffff821115612b0c57612b0b612a76565b5b612b1582612858565b9050602081019050919050565b82818337600083830152505050565b6000612b44612b3f84612af1565b612ad6565b905082815260208101848484011115612b6057612b5f612a71565b5b612b6b848285612b22565b509392505050565b600082601f830112612b8857612b87612a6c565b5b8135612b98848260208601612b31565b91505092915050565b600060208284031215612bb757612bb661274d565b5b600082013567ffffffffffffffff811115612bd557612bd4612752565b5b612be184828501612b73565b91505092915050565b600081519050919050565b600082825260208201905092915050565b6000819050602082019050919050565b612c1f816128c4565b82525050565b6000612c318383612c16565b60208301905092915050565b6000602082019050919050565b6000612c5582612bea565b612c5f8185612bf5565b9350612c6a83612c06565b8060005b83811015612c9b578151612c828882612c25565b9750612c8d83612c3d565b925050600181019050612c6e565b5085935050505092915050565b60006020820190508181036000830152612cc28184612c4a565b905092915050565b600060208284031215612ce057612cdf61274d565b5b6000612cee8482850161299a565b91505092915050565b612d00816127dc565b8114612d0b57600080fd5b50565b600081359050612d1d81612cf7565b92915050565b60008060408385031215612d3a57612d3961274d565b5b6000612d488582860161299a565b9250506020612d5985828601612d0e565b9150509250929050565b600067ffffffffffffffff821115612d7e57612d7d612a76565b5b612d8782612858565b9050602081019050919050565b6000612da7612da284612d63565b612ad6565b905082815260208101848484011115612dc357612dc2612a71565b5b612dce848285612b22565b509392505050565b600082601f830112612deb57612dea612a6c565b5b8135612dfb848260208601612d94565b91505092915050565b60008060008060808587031215612e1e57612e1d61274d565b5b6000612e2c8782880161299a565b9450506020612e3d8782880161299a565b9350506040612e4e878288016128e5565b925050606085013567ffffffffffffffff811115612e6f57612e6e612752565b5b612e7b87828801612dd6565b91505092959194509250565b60008060408385031215612e9e57612e9d61274d565b5b6000612eac8582860161299a565b9250506020612ebd8582860161299a565b9150509250929050565b7f4e487b7100000000000000000000000000000000000000000000000000000000600052602260045260246000fd5b60006002820490506001821680612f0e57607f821691505b602082108103612f2157612f20612ec7565b5b50919050565b7f4552433732313a20617070726f76656420717565727920666f72206e6f6e657860008201527f697374656e7420746f6b656e0000000000000000000000000000000000000000602082015250565b6000612f83602c8361281d565b9150612f8e82612f27565b604082019050919050565b60006020820190508181036000830152612fb281612f76565b9050919050565b7f4552433732313a20617070726f76616c20746f2063757272656e74206f776e6560008201527f7200000000000000000000000000000000000000000000000000000000000000602082015250565b600061301560218361281d565b915061302082612fb9565b604082019050919050565b6000602082019050818103600083015261304481613008565b9050919050565b7f4552433732313a20617070726f76652063616c6c6572206973206e6f74206f7760008201527f6e6572206e6f7220617070726f76656420666f7220616c6c0000000000000000602082015250565b60006130a760388361281d565b91506130b28261304b565b604082019050919050565b600060208201905081810360008301526130d68161309a565b9050919050565b7f4552433732313a207472616e736665722063616c6c6572206973206e6f74206f60008201527f776e6572206e6f7220617070726f766564000000000000000000000000000000602082015250565b600061313960318361281d565b9150613144826130dd565b604082019050919050565b600060208201905081810360008301526131688161312c565b9050919050565b7f455243373231456e756d657261626c653a206f776e657220696e646578206f7560008201527f74206f6620626f756e6473000000000000000000000000000000000000000000602082015250565b60006131cb602b8361281d565b91506131d68261316f565b604082019050919050565b600060208201905081810360008301526131fa816131be565b9050919050565b7f455243373231456e756d657261626c653a20676c6f62616c20696e646578206f60008201527f7574206f6620626f756e64730000000000000000000000000000000000000000602082015250565b600061325d602c8361281d565b915061326882613201565b604082019050919050565b6000602082019050818103600083015261328c81613250565b9050919050565b7f4e487b7100000000000000000000000000000000000000000000000000000000600052603260045260246000fd5b7f4f776e61626c653a2063616c6c6572206973206e6f7420746865206f776e6572600082015250565b60006132f860208361281d565b9150613303826132c2565b602082019050919050565b60006020820190508181036000830152613327816132eb565b9050919050565b60008190508160005260206000209050919050565b60006020601f8301049050919050565b600082821b905092915050565b6000600883026133907fffffffffffffffffffffffffffffffffffffffffffffffffffffffffffffffff82613353565b61339a8683613353565b95508019841693508086168417925050509392505050565b6000819050919050565b60006133d76133d26133cd846128c4565b6133b2565b6128c4565b9050919050565b6000819050919050565b6133f1836133bc565b6134056133fd826133de565b848454613360565b825550505050565b600090565b61341a61340d565b6134258184846133e8565b505050565b5b818110156134495761343e600082613412565b60018101905061342b565b5050565b601f82111561348e5761345f8161332e565b61346884613343565b81016020851015613477578190505b61348b61348385613343565b83018261342a565b50505b505050565b600082821c905092915050565b60006134b160001984600802613493565b1980831691505092915050565b60006134ca83836134a0565b9150826002028217905092915050565b6134e382612812565b67ffffffffffffffff8111156134fc576134fb612a76565b5b6135068254612ef6565b61351182828561344d565b600060209050601f8311600181146135445760008415613532578287015190505b61353c85826134be565b8655506135a4565b601f1984166135528661332e565b60005b8281101561357a57848901518255600182019150602085019450602081019050613555565b868310156135975784890151613593601f8916826134a0565b8355505b6001600288020188555050505b505050505050565b7f4e487b7100000000000000000000000000000000000000000000000000000000600052601160045260246000fd5b60006135e6826128c4565b91507fffffffffffffffffffffffffffffffffffffffffffffffffffffffffffffffff8203613618576136176135ac565b5b600182019050919050565b7f4552433732313a206f776e657220717565727920666f72206e6f6e657869737460008201527f656e7420746f6b656e0000000000000000000000000000000000000000000000602082015250565b600061367f60298361281d565b915061368a82613623565b604082019050919050565b600060208201905081810360008301526136ae81613672565b9050919050565b7f4552433732313a2062616c616e636520717565727920666f7220746865207a6560008201527f726f206164647265737300000000000000000000000000000000000000000000602082015250565b6000613711602a8361281d565b915061371c826136b5565b604082019050919050565b6000602082019050818103600083015261374081613704565b9050919050565b7f6e65656420746f206d696e74206174206c656173742031204e46540000000000600082015250565b600061377d601b8361281d565b915061378882613747565b602082019050919050565b600060208201905081810360008301526137ac81613770565b9050919050565b7f6d6178206d696e7420616d6f756e74207065722073657373696f6e206578636560008201527f6564656400000000000000000000000000000000000000000000000000000000602082015250565b600061380f60248361281d565b915061381a826137b3565b604082019050919050565b6000602082019050818103600083015261383e81613802565b9050919050565b6000613850826128c4565b915061385b836128c4565b9250828201905080821115613873576138726135ac565b5b92915050565b7f6d6178204e4654206c696d697420657863656564656400000000000000000000600082015250565b60006138af60168361281d565b91506138ba82613879565b602082019050919050565b600060208201905081810360008301526138de816138a2565b9050919050565b7f4552433732313a20617070726f766520746f2063616c6c657200000000000000600082015250565b600061391b60198361281d565b9150613926826138e5565b602082019050919050565b6000602082019050818103600083015261394a8161390e565b9050919050565b7f4552433732314d657461646174613a2055524920717565727920666f72206e6f60008201527f6e6578697374656e7420746f6b656e0000000000000000000000000000000000602082015250565b60006139ad602f8361281d565b91506139b882613951565b604082019050919050565b600060208201905081810360008301526139dc816139a0565b9050919050565b600081905092915050565b60006139f982612812565b613a0381856139e3565b9350613a1381856020860161282e565b80840191505092915050565b60008154613a2c81612ef6565b613a3681866139e3565b94506001821660008114613a515760018114613a6657613a99565b60ff1983168652811515820286019350613a99565b613a6f8561332e565b60005b83811015613a9157815481890152600182019150602081019050613a72565b838801955050505b50505092915050565b6000613aae82866139ee565b9150613aba82856139ee565b9150613ac68284613a1f565b9150819050949350505050565b7f4f776e61626c653a206e6577206f776e657220697320746865207a65726f206160008201527f6464726573730000000000000000000000000000000000000000000000000000602082015250565b6000613b2f60268361281d565b9150613b3a82613ad3565b604082019050919050565b60006020820190508181036000830152613b5e81613b22565b9050919050565b7f4552433732313a206f70657261746f7220717565727920666f72206e6f6e657860008201527f697374656e7420746f6b656e0000000000000000000000000000000000000000602082015250565b6000613bc1602c8361281d565b9150613bcc82613b65565b604082019050919050565b60006020820190508181036000830152613bf081613bb4565b9050919050565b7f4552433732313a207472616e73666572206f6620746f6b656e2074686174206960008201527f73206e6f74206f776e0000000000000000000000000000000000000000000000602082015250565b6000613c5360298361281d565b9150613c5e82613bf7565b604082019050919050565b60006020820190508181036000830152613c8281613c46565b9050919050565b7f4552433732313a207472616e7366657220746f20746865207a65726f2061646460008201527f7265737300000000000000000000000000000000000000000000000000000000602082015250565b6000613ce560248361281d565b9150613cf082613c89565b604082019050919050565b60006020820190508181036000830152613d1481613cd8565b9050919050565b6000613d26826128c4565b9150613d31836128c4565b9250828203905081811115613d4957613d486135ac565b5b92915050565b7f4552433732313a207472616e7366657220746f206e6f6e20455243373231526560008201527f63656976657220696d706c656d656e7465720000000000000000000000000000602082015250565b6000613dab60328361281d565b9150613db682613d4f565b604082019050919050565b60006020820190508181036000830152613dda81613d9e565b9050919050565b7f4e487b7100000000000000000000000000000000000000000000000000000000600052601260045260246000fd5b6000613e1b826128c4565b9150613e26836128c4565b925082613e3657613e35613de1565b5b828204905092915050565b6000613e4c826128c4565b9150613e57836128c4565b925082613e6757613e66613de1565b5b828206905092915050565b600081519050919050565b600082825260208201905092915050565b6000613e9982613e72565b613ea38185613e7d565b9350613eb381856020860161282e565b613ebc81612858565b840191505092915050565b6000608082019050613edc6000830187612959565b613ee96020830186612959565b613ef660408301856129ef565b8181036060830152613f088184613e8e565b905095945050505050565b600081519050613f2281612783565b92915050565b600060208284031215613f3e57613f3d61274d565b5b6000613f4c84828501613f13565b91505092915050565b7f4e487b7100000000000000000000000000000000000000000000000000000000600052603160045260246000fd5b7f4552433732313a206d696e7420746f20746865207a65726f2061646472657373600082015250565b6000613fba60208361281d565b9150613fc582613f84565b602082019050919050565b60006020820190508181036000830152613fe981613fad565b9050919050565b7f4552433732313a20746f6b656e20616c7265616479206d696e74656400000000600082015250565b6000614026601c8361281d565b915061403182613ff0565b602082019050919050565b6000602082019050818103600083015261405581614019565b905091905056fea26469706673582212208c5a6086d3e5c38f97ac7f17bf5eab4a449956fb71df2faceb467dd1d4a4e50e64736f6c63430008120033",
	"linkReferences": {},
	"deployedLinkReferences": {}
}